{
  "contractName": "MOC",
  "abi": [
    {
      "inputs": [],
      "payable": false,
      "stateMutability": "nonpayable",
      "type": "constructor"
    },
    {
      "constant": true,
      "inputs": [
        {
          "internalType": "uint256",
          "name": "idx",
          "type": "uint256"
        }
      ],
      "name": "getItem",
      "outputs": [
        {
          "internalType": "uint256",
          "name": "",
          "type": "uint256"
        }
      ],
      "payable": false,
      "stateMutability": "view",
      "type": "function"
    },
    {
      "constant": false,
      "inputs": [
        {
          "internalType": "uint256",
          "name": "idx",
          "type": "uint256"
        }
      ],
      "name": "vote",
      "outputs": [
        {
          "internalType": "uint256",
          "name": "",
          "type": "uint256"
        }
      ],
      "payable": false,
      "stateMutability": "nonpayable",
      "type": "function"
    }
  ],
  "bytecode": "0x608060405234801561001057600080fd5b5060008090505b600381101561004057600080826003811061002e57fe5b01819055508080600101915050610017565b50610153806100506000396000f3fe608060405234801561001057600080fd5b50600436106100365760003560e01c80630121b93f1461003b5780633129e7731461007d575b600080fd5b6100676004803603602081101561005157600080fd5b81019080803590602001909291905050506100bf565b6040518082815260200191505060405180910390f35b6100a96004803603602081101561009357600080fd5b8101908080359060200190929190505050610107565b6040518082815260200191505060405180910390f35b60008082101580156100d15750600382105b156100fd57600082600381106100e357fe5b016000815480929190600101919050555060019050610102565b600090505b919050565b600080826003811061011557fe5b0154905091905056fea265627a7a72315820bda7bf500fd003bad75e74bb58070a24de5574e54b88d047de1cc04776686d5364736f6c63430005100032",
  "source": "pragma solidity ^0.5.1;\r\n\r\ncontract MOC {\r\n    uint256[3] private items;\r\n\r\n    constructor() public {\r\n        for (uint256 i = 0; i < 3; i++) {\r\n            items[i] = 0;\r\n        }\r\n    }\r\n\r\n    function getItem(uint256 idx) public view returns(uint256) {\r\n        return items[idx];\r\n    }\r\n\r\n    function vote(uint256 idx) public returns(uint256) {\r\n        if (idx >= 0 && idx < 3) {\r\n            items[idx]++;\r\n            return 1;\r\n        }\r\n        return 0;\r\n    }\r\n}",
  "sourcePath": "D:/WORK/Blockchain/moc-dapp/contracts/MOC.sol",
  "compiler": {
    "name": "solc",
    "version": "0.5.16+commit.9c3226ce.Emscripten.clang"
  },
  "schemaVersion": "3.4.1",
  "updatedAt": "2021-06-01T15:06:39.032Z",
  "networkType": "ethereum",
  "devdoc": {
    "methods": {}
  },
  "userdoc": {
    "methods": {}
  }
}